:020000040800F2
:10000000A006002029020008650200086702000817
:10001000690200086B0200086D0200080000000081
:100020000000000000000000000000006F02000857
:100030007102000800000000730200087502000849
:1000400077020008770200087702000877020008AC
:10005000770200087702000877020008770200089C
:10006000770200087702000877020008770200088C
:10007000770200087702000877020008770200087C
:10008000770200087702000877020008770200086C
:10009000770200087702000877020008770200085C
:1000A000770200087702000877020008770200084C
:1000B000770200087702000877020008770200083C
:1000C000770200087702000877020008770200082C
:1000D000770200087702000877020008770200081C
:1000E000770200087702000877020008770200080C
:1000F00077020008770200087702000877020008FC
:1001000077020008770200087702000877020008EB
:1001100077020008770200087702000877020008DB
:1001200077020008770200087702000877020008CB
:1001300077020008770200087702000877020008BB
:1001400077020008770200087702000877020008AB
:10015000770200087702000877020008770200089B
:10016000770200087702000877020008770200088B
:1001700077020008770200087702000800000000FC
:10018000770200087702000800F002F800F03CF85F
:100190000AA090E8000C82448344AAF10107DA45E2
:1001A00001D100F031F8AFF2090EBAE80F0013F0F8
:1001B000010F18BFFB1A43F0010318476410000039
:1001C00084100000103A24BF78C878C1FAD85207CA
:1001D00024BF30C830C144BF04680C6070470000C1
:1001E0000023002400250026103A28BF78C1FBD840
:1001F000520728BF30C148BF0B6070471FB501F0E0
:1002000009F81FBD10B510BD00F0B7F81146FFF793
:10021000F5FF00F021FD00F0D5F803B4FFF7F2FF81
:1002200003BC00F0DDF8000016481749174B99424F
:100230003CBF50F8042B41F8042BF8D314494FF07D
:1002400000028B4238BF43F8042BFAD3DFF8440096
:10025000016841F470010160BFF34F8FBFF36F8FEE
:100260000D480047FEE7FEE7FEE7FEE7FEE7FEE794
:10027000FEE7FEE7FEE7FEE708480949094A0A4BA0
:1002800070470000401200080000002040000020DD
:10029000A006002088ED00E089010008A0000020F1
:1002A000A0060020A0020020A00200200FB41CB570
:1002B000074B06AA7B4469460090059800F031F888
:1002C0000020694600F040F81CBC5DF814FB0000FB
:1002D0009100000010B5431C02E010F8011B71B141
:1002E0008107FAD14FF0013202C88C1A8C4314EA0C
:1002F000C211F9D0C01A0A0603D0C01E10BDC01A20
:1003000010BD0A0401D0801E10BD0902FCD0401EA1
:1003100010BD70477047704701694A1C0261087838
:10032000704700B58FB0CDE9013100210591054935
:100330007944CDE903101146684600F00AF80FB081
:1003400000BD0000E5FFFFFF0A6802F8010B0A602C
:1003500070472DE9F04106460024D6E90170F568A2
:100360008046304603E04146B847641C3046A84703
:100370000028F8D12046BDE8F081754600F02CF841
:10038000AE4605006946534620F00700854618B082
:1003900020B5FFF771FFBDE820404FF000064FF099
:1003A00000074FF000084FF0000B21F00701AC46AA
:1003B000ACE8C009ACE8C009ACE8C009ACE8C009C9
:1003C0008D46704710B50446AFF300802046BDE867
:1003D0001040FFF722BF0000004870474000002097
:1003E00001491820ABBEFEE726000200704700005E
:1003F0000348406920F4807001494861704700005B
:10040000001000480348406940F480700149486189
:1004100070470000001000482348C06C40F01200F4
:100420002149C8646FF03000204908600846006820
:1004300040F0100008601D480830006820F03000CF
:100440001A49083108600846006840F0300008602A
:10045000081F006820F00400091F086013480C30D2
:10046000006820F0300011490C3108606FF4403012
:100470000F4908600846006840F48030086008466C
:10048000806820F4403088600846806840F440303E
:1004900088600846406820F4807048600846C0685C
:1004A00020F44030C860704700100240000400484B
:1004B000001000480348006820F00400014908606B
:1004C00070470000140400480348006840F004002E
:1004D0000149086070470000140400485E4909683B
:1004E00021F007015C4A11601146096841F00201E0
:1004F00011605A49096841F48071584A116000BF7F
:100500005649096801F480610029F9D01020534947
:10051000496821F0F851514A51601146496841EA51
:10052000006151601146096821F08071116000BFBF
:100530004A49096801F00071B1F1007FF8D04749DC
:10054000C96821F00301454AD1601146C96841F0EC
:100550000201D1601146C96821F4FE4141F4A05165
:10056000D1601146C96821F0700141F01001D160DD
:100570001146C96821F0C061D1601146C96841F0D7
:100580008071D1601146096841F08071116000BF2F
:100590003249096801F000710029F9D02F498968B2
:1005A00021F003012D4A91601146896841F0030151
:1005B000916000BF2949896801F00C010C29F9D12B
:1005C0002649896821F0F001244A91601146896822
:1005D00021F4E06191601146896821F460519160D5
:1005E0001146096821F08061116000BF1B4909684C
:1005F00001F08061B1F1806FF8D01849096921F4E8
:10060000FE41164A11611146096941F4C051116158
:100610001146096941F4003111611146096941F43B
:10062000803111611146096841F08061116000BF9D
:100630000A49096801F080610029F9D00749883129
:10064000096821F44001054AC2F888101146096E74
:1006500041F4001111667047002002400010024072
:100660001A48C06C40F008001849C864184800686F
:1006700020F47050164908600846006840F4205085
:10068000086013482030006840F0EE6010492031C7
:1006900008600F480830006840F470500C49083179
:1006A0000860081D006820F47050091D08600846A5
:1006B000006840F4A05008600548001D006820F064
:1006C00060000349091D08607047000000100240E7
:1006D000000C004800B50D48806D40F400300B4917
:1006E00088650A488830006820F00C00C1F888004E
:1006F0000846D0F8880040F00400C1F88800FFF7F1
:10070000AFFF034800F010F800BD000000100240E9
:1007100000440040642242430723B2FBF3F100BFD0
:100720004A1E111EFCD17047016821F001010160D1
:10073000016821F010210160016821F4004101608D
:10074000416821F44051416042F28D01C16001686D
:1007500041F00C0101601E4988421BD1016841F043
:1007600020010160016821F040010160016821F071
:1007700010010160016821F080010160016821F42D
:1007800080710160016821F040010160016821F081
:10079000010101600F49884209D1016A41F040011D
:1007A00001620D49096841F0C0010B4A11600168FE
:1007B00041F00101016000BFC16901F4001100298D
:1007C000FAD000BFC16901F480010029FAD0704756
:1007D000004C00400044004008380140014600BF82
:1007E000C86900F020000028FAD0888CC0B2704799
:1007F000F0B504460E46174600250CE000BFE06940
:1008000000F080000028FAD0705D20854FF49670CB
:10081000FFF780FF6D1CBD42F0D300BFE06900F020
:1008200040000028FAD0E06920F04000E061F0BD0F
:1008300010B504461248005D30B1012809D00228E5
:100840000CD0032814D10EE0FFF7DCFDFFF732FED9
:1008500013E0FFF7CDFDFFF72DFE0EE0FFF7C8FD1B
:10086000FFF732FE09E0FFF7CDFDFFF72DFE04E0B4
:10087000FFF7C8FDFFF728FE00BF00BF10BD000056
:100880000200002010B504467448005D30B1012814
:1008900064D0022863D003285FD1C0E0704800789C
:1008A00030B900206D49085501206E49085554E0C3
:1008B0006B480078012806D10220684908550020BD
:1008C0006849085549E066480078022810D1664812
:1008D000005D401E644908550846015D204600F051
:1008E0006DFA02205D49085500205E49085534E044
:1008F0005B480078032810D15B48005D401C5A49D2
:1009000008550846015D204600F058FA0220534978
:1009100008550020534908551FE051480078042825
:1009200006D100204D49085501204E49085514E0D4
:100930004B480078052806D1022048490855002078
:100940004849085509E046480078062805D10320A3
:10095000424908550120434908557DE07CE0404864
:10096000007830B900203D49085501203D4908551F
:1009700054E03B480078012806D102203749085549
:1009800000203849085549E035480078022810D140
:100990003548005D401E344908550846015D204633
:1009A00000F00CFA02202D49085500202D49085569
:1009B00034E02B480078032810D12B48005D401C00
:1009C000294908550846015D204600F0F7F9022044
:1009D000224908550020234908551FE02048007887
:1009E000042806D102201D49085500201D4908553C
:1009F00014E01B480078052806D102201749085545
:100A000000201849085509E015480078062805D146
:100A10000320124908550120124908551CE01048CE
:100A20000078042806D103200C49085501200D49FF
:100A3000085510E00A480078052806D10220074929
:100A4000085500200749085505E0032003490855CB
:100A500001200449085500BF00BF10BD0000002060
:100A600004000020020000203300002010B50446DE
:100A70007448005D30B1012864D0022863D0032897
:100A80005FD1C0E07048007830B900206D4908554A
:100A900001206E49085554E06B480078012806D1C2
:100AA00002206849085500206849085549E0664811
:100AB0000078022810D16648005D401E6449085540
:100AC0000846015D204600F079F902205D4908558D
:100AD00000205E49085534E05B480078032810D1B7
:100AE0005B48005D401C5A4908550846015D204698
:100AF00000F064F902205349085500205349085575
:100B00001FE051480078042806D100204D490855BF
:100B100001204E49085514E04B480078052806D1BD
:100B200002204849085500204849085509E0464830
:100B30000078062805D10320424908550120434981
:100B400008557DE07CE04348007830B900203D49FD
:100B5000085501203D49085554E03E4800780128D9
:100B600006D102203749085500203849085549E088
:100B700038480078022810D13548005D401E3449BD
:100B800008550846015D204600F018F902202D495D
:100B9000085500202D49085534E02E4800780328D8
:100BA00010D12B48005D401C294908550846015DBD
:100BB000204600F003F9022022490855002023496D
:100BC00008551FE023480078042806D102201D495B
:100BD000085500201D49085514E01E4800780528D6
:100BE00006D102201749085500201849085509E088
:100BF00018480078062805D103201249085501201D
:100C0000124908551CE013480078042806D1032037
:100C10000C49085501200D49085510E00D48007891
:100C2000052806D102200749085500200749085524
:100C300005E003200349085501200449085500BF79
:100C400000BF10BD000000200400002002000020B2
:100C50003300002005000020FFF740FCFFF73AFDBD
:100C6000FFF7DAFB00F034FA00F0A6FA1FE00020EC
:100C70000F49086000F0D0F80020FFF703FE0120C4
:100C8000FFF7F4FE002000F015F80020FFF7D0FD7C
:100C9000012000F00FF80120FFF7CAFD05E004482D
:100CA0000068B0F57A7F00D300E0F8E700BFDEE728
:100CB0002404004070B504463848005D28B1374828
:100CC000005D401E3549085570BD3548005D03285C
:100CD00003D03448005D012800D1F5E73248005DBB
:100CE0003249085C00F0E0062F48005D085C00F027
:100CF0001F05402E12D004DC002E41D0202E46D1FC
:100D000004E0802E10D0A02E41D121E029462046BB
:100D100000F054F80020234908553CE01F480555D1
:100D200000202049085536E02148005D18B1032015
:100D30001C4908552FE000201A4908551D48055543
:100D40001948005D1C49085501201949085522E041
:100D50001848005D60B10020124908551548005D33
:100D6000401E144908551448005D0F49085506E017
:100D700000200C490855104908550D4908550AE04E
:100D800000200849085503200549085503E00220C2
:100D90000449085500BF00BF00BF95E7350000209B
:100DA000000000200200002031000020060000208A
:100DB0003B000020370000203900002010B502461B
:100DC000062910D2DFE801F0030507090B0D1420F6
:100DD00009E0112007E00E2005E00B2003E00820C9
:100DE00001E0042000BF00BF1F2903D90223084CE3
:100DF000A3540CE02AB94FF080435963054CA0542A
:100E000005E0012A03D193079963024CA05410BD59
:100E100002000020330000203EB50024A4A1684653
:100E2000FFF744FA6846FFF755FA05462A46694631
:100E3000A148FFF7DDFC00BF9F48FFF7CFFC02A9E8
:100E4000085502A8015D08229B48FFF7D1FC601CF1
:100E5000C4B2601E02A9085C0D28EDD19DF80800FF
:100E60000D2800D13EBD9DF80800622876D010DC28
:100E70004E287BD006DC42287DD0432834D04C2835
:100E800030D15BE0502814D0522842D058287AD173
:100E900076E070280CD006DC632824D06C284CD077
:100EA0006E2870D161E0722832D078286BD166E06C
:100EB00000BF82480078032806D1062080490870C8
:100EC0000120804908700DE07E480078022803D197
:100ED00004207B49087005E0002079490870012052
:100EE000784908704FE000BF74480078032803D1A8
:100EF0000620734908700AE072480078022803D17E
:100F000004206F49087002E001206D4908703AE042
:100F100000BF6C480078012803D00420684908709D
:100F20000AE069480078002803DD0220644908705F
:100F300002E004206249087025E000BF61480078A3
:100F4000012803D004205E4908700DE05E48007857
:100F5000052806DA03205A49087005E00AE005E092
:100F600009E00420564908700DE000BF04205449F0
:100F7000087008E000BF05205149087003E000BF79
:100F8000FFF74AFF00BF00BF9DF8090062286ED03E
:100F900010DC4E287BD006DC42287DD0432834D09C
:100FA0004C2830D15BE0502814D0522842D0582829
:100FB0007AD176E070280CD006DC632824D06C2827
:100FC0004CD06E2870D161E0722832D078286BD175
:100FD00066E000BF39484078032806D106203B4927
:100FE00008700120374948700DE0364840780228E3
:100FF00003D104203249087005E00020334908700D
:101000000120304948704FE000BF2C484078032849
:1010100003D106202D4908700AE02A4840780228AA
:1010200003D104202649087002E0012027490870F6
:101030003AE000BF23484078012803D00420234928
:1010400008700AE020484078002803DD02201F498C
:10105000087002E004201D49087025E000BF19480F
:101060004078012806D00420184908700DE012E0ED
:101070000DE011E014484078052803DA03201349F5
:10108000087002E00420114908700DE000BF042040
:101090000E49087008E000BF05200C49087003E005
:1010A00000BFFFF7B9FE00BF00BF00BFDAE60000D7
:1010B0000A0D3E2000000000004400400000002017
:1010C0000400002002000020330000200500002062
:1010D0003848C06C40F001003649C8644FF0904079
:1010E000006800204FF0904108600846006840F01A
:1010F0000A0008600846006840F0280008600846BA
:10110000006A40F0010008620846006A40F01000E2
:1011100008622848806D40F00100264988654FF438
:10112000FA50010688620006806940F20331884364
:101130004FF0804188610846806940F0080088616E
:101140000846806940F4006088610846806940F480
:10115000DC6088610846806940F4DC2088610846CC
:10116000806920F4806088610846806920F43060DE
:1011700088610846006840F0800008600846006A00
:1011800040F0010008620846006A40F01000086262
:10119000C820C8623220486388634007406940F035
:1011A000010048610846006920F001000861012043
:1011B00008607047001002401448806D40F0020043
:1011C0001249886541F63F70114908601048283877
:1011D000006840F080000E49283908604FF47A70AA
:1011E0000B49091D08600A481438006840F00100E6
:1011F000074914390860081F006820F00100091F22
:101200000860012002492839086070470010024038
:10121000280400404FF04070E1EE100A70470000D3
:10122000401200080000002040000000C401000837
:10123000801200084000002060060000E001000865
:1012400001010000000020252023802124A020226D
:1012500040234022235F5F5F240020212223242596
:1012600024232221002321230025227222274A60E1
:10127000000000000000000000000000000000006E
:040000050800018965
:00000001FF
