:020000040800F2
:10000000C81A002085020008C1020008C3020008C7
:10001000C5020008C7020008C9020008000000006D
:10002000000000000000000000000000CB020008FB
:10003000CD02000800000000CF020008D102000835
:10004000D3020008D3020008D3020008D30200083C
:10005000D3020008D3020008D3020008D30200082C
:10006000D3020008D3020008D3020008D30200081C
:10007000D3020008D3020008D3020008D30200080C
:10008000D3020008D3020008D3020008D3020008FC
:10009000D3020008D3020008D3020008D3020008EC
:1000A000D3020008D3020008D3020008D3020008DC
:1000B000D3020008D3020008D3020008D3020008CC
:1000C000D3020008D3020008D3020008D3020008BC
:1000D000D3020008D3020008D3020008D3020008AC
:1000E000D3020008D3020008D3020008D30200089C
:1000F000D3020008D3020008D3020008D30200088C
:10010000D3020008D3020008D3020008D30200087B
:10011000D3020008D3020008D3020008D30200086B
:10012000D3020008D3020008D3020008D30200085B
:10013000D3020008D3020008D3020008D30200084B
:10014000D3020008D3020008D3020008D30200083B
:10015000D3020008D3020008D3020008D30200082B
:10016000D3020008D3020008D3020008D30200081B
:10017000D3020008D3020008D302000800000000E8
:10018000D3020008D302000800F002F800F06AF879
:100190000AA090E8000C82448344AAF10107DA45E2
:1001A00001D100F05FF8AFF2090EBAE80F0013F0CA
:1001B000010F18BFFB1A43F001031847A40D0000FC
:1001C000C40D00000A444FF0000C10F8013B13F07E
:1001D000070408BF10F8014B1D1108BF10F8015BA0
:1001E000641E05D010F8016B641E01F8016BF9D193
:1001F00013F0080F1EBF10F8014BAD1C0C1B09D1EA
:100200006D1E58BF01F801CBFAD505E014F8016B5B
:1002100001F8016B6D1EF9D59142D6D370470000ED
:100220000023002400250026103A28BF78C1FBD8FF
:10023000520728BF30C148BF0B607047642900F0E7
:10024000AB80002070471FB500F084FE00F048FA34
:1002500004000020002100F067FE401C60601FBD0C
:1002600010B510BD00F016FA1146FFF7ECFF00F0D4
:10027000E1FD00F047FA03B4FFF7F2FF03BC00F022
:100280008BFA000016481749174B99423CBF50F8AB
:10029000042B41F8042BF8D314494FF000028B4291
:1002A00038BF43F8042BFAD3DFF84400016841F467
:1002B00070010160BFF34F8FBFF36F8F0D48004790
:1002C000FEE7FEE7FEE7FEE7FEE7FEE7FEE7FEE706
:1002D000FEE7FEE708480949094A0A4B7047000053
:1002E000901000080000002044110020C81A0020CF
:1002F00088ED00E089010008C8140020C81A002019
:10030000C8160020C81600200FB41CB5074B06AA5B
:100310007B4469460090059800F00DF9002069467D
:1003200000F01CF91CBC5DF814FB00004902000041
:100330002DE9F0410E460446002020622046E16887
:10034000884730B3252805D0D4E901219047206A99
:10035000401CF2E7E168204600278847050018D0D6
:10036000A5F14100192802D820354FF40067324624
:10037000294620462760FFF761FF40B1012804D0DD
:10038000F61D26F007060836D8E7361DD6E72846BC
:10039000DAE7206ABDE8F0812DE9F0410646002445
:1003A00010687529314616A510D0AFF300800028DB
:1003B00002DA404213A507E031688A0701D512A589
:1003C00002E0490704D511A5012401E0AFF3008044
:1003D00000210A2206F1240709E0B0FBF2FCB0FB81
:1003E000F2F302FB1C00303078541846491C0028F8
:1003F000F3D123462A463046BDE8F04100F03CB830
:10040000000000002D0000002B0000002000000074
:1004100070B5064600F02CF80468054630460A22FE
:10042000002100F0A0F82C6070BD10B5431C02E064
:1004300010F8011B71B18107FAD14FF0013202C8E7
:100440008C1A8C4314EAC211F9D0C01A0A0603D0E0
:10045000C01E10BDC01A10BD0A0401D0801E10BD00
:100460000902FCD0401E10BD704770477047000065
:1004700000487047641400202DE9F0470D46994666
:100480009246044600F124080168880604D5E06914
:1004900021F01001216000E00120A84201DD471B8E
:1004A00000E00027A1697A1902EB0900081AA0618F
:1004B0002078C00602D42046AFF30080002608E072
:1004C000D4E901211AF806009047206A401C761CE6
:1004D00020624E45F4DB2078C0060AD52046AFF3F3
:1004E000008006E0D4E9012130209047206A401CBA
:1004F0002062381EA7F10107F4DC07E0D4E90121EE
:1005000018F805009047206A401C2062281EA5F1BB
:100510000105F3DC2046AFF300802078000602D509
:100520000220BDE8F0870120FBE7000001694A1CBA
:1005300002610878704700B58FB0CDE90131002124
:10054000059105497944CDE9031011466846FFF746
:10055000EFFE0FB000BD0000E5FFFFFF0A6802F8E4
:10056000010B0A6070472DE9F04791460F4680461F
:100570000446002614F8015B2DB100F031F8006844
:10058000405DC007F6D12B2D02D02D2D18D0641E52
:100590004A463946204600F02BF827B13968A14277
:1005A00001D1C7F800804FF0020471050BD540421D
:1005B000002803DDFFF75CFF0460A007BDE8F087BB
:1005C00046F48066E4E70028F8DAFFF751FF04609C
:1005D0006FF00040F2E7000000487047641400200C
:1005E00010B500F07DF8001D10BD00BF3D090000F2
:1005F0002DE9F05F824615468B4600270AF101047B
:10060000B9460078302801D09DB113E014F8010BF1
:100610000127782803D0582801D045B10AE00DB150
:10062000102D07D1002714F8010B102502E0082532
:1006300000E00A250026B0460EE005FB080005FB99
:1006400006F101271FFA80F801EB1046B6F5803F4E
:1006500000D3B94614F8010B294600F045F80028EC
:10066000EBDABBF1000F05D00FB1641E00E0544679
:10067000CBF80040B9F1000F06D0FFF7F9FE0221D8
:100680000160C81E00F003B848EA0640FAE730BC33
:10069000BDE8C09F7546FFF79FFFAE46050069465F
:1006A000534620F00700854618B020B5FFF712FE2C
:1006B000BDE820404FF000064FF000074FF0000863
:1006C0004FF0000B21F00701AC46ACE8C009ACE8E4
:1006D000C009ACE8C009ACE8C0098D46704700000D
:1006E00000487047841400203A2800D2303820F0A7
:1006F0002002412A01D3A2F13700884201D34FF0F2
:10070000FF30704710B50446AFF300802046BDE8C7
:100710001040FFF7B0BD00004FF0013C50F8042B33
:1007200051F8043B9A4221D1A2EB0C03934313EA04
:10073000CC1317D150F8042B51F8043B9A4215D131
:10074000A2EB0C03934313EACC130BD150F8042B08
:1007500051F8043B9A4209D1A2EB0C03934313EAEC
:10076000CC13DBD04FF00000704700BFD01A01BAA5
:10077000B1FA81F101F0180122FA01F0CB40C1F188
:100780002001DBB2C0B2C01A2CFA01F3D11A914396
:1007900011EAC311E6D1704701491820ABBEFEE74C
:1007A00026000200704700002748C06C40F002009D
:1007B0002549C8642548006840F400502349086072
:1007C0002148806D40F004001F49886540F21F30C9
:1007D0001F4908601E481038006820F003001C49BB
:1007E000103908600846006840F0010008600846BB
:1007F000006820F0F0000860154808380068002004
:1008000013490839086012481038006820F00C00BD
:100810000F49103908600E480838006840F00100A0
:100820000B49083908600A481C38006840F4007019
:1008300007491C39086006482838006840F0010064
:10084000034928390860704700100240000400483E
:10085000280800405E49096821F007015C4A1160E0
:100860001146096841F0020111605A49096841F4D2
:100870008071584A116000BF5649096801F48061CF
:100880000029F9D010205349496821F0F851514A04
:1008900051601146496841EA00615160114609689A
:1008A00021F08071116000BF4A49096801F00071B0
:1008B000B1F1007FF8D04749C96821F00301454AEA
:1008C000D1601146C96841F00201D1601146C96882
:1008D00021F4FE4141F4A051D1601146C96821F0D4
:1008E000700141F01001D1601146C96821F0C0616A
:1008F000D1601146C96841F08071D1601146096824
:1009000041F08071116000BF3249096801F0007147
:100910000029F9D02F49896821F003012D4A9160FF
:100920001146896841F00301916000BF2949896837
:1009300001F00C010C29F9D12649896821F0F00158
:10094000244A91601146896821F4E0619160114662
:10095000896821F4605191601146096821F0806135
:10096000116000BF1B49096801F08061B1F1806F1F
:10097000F8D01849096921F4FE41164A116111465F
:10098000096941F4C05111611146096941F400310E
:1009900011611146096941F48031116111460968FC
:1009A00041F08061116000BF0A49096801F080616F
:1009B0000029F9D007498831096821F44001054A26
:1009C000C2F888101146096E41F400111166704793
:1009D00000200240001002401A48C06C40F008009D
:1009E0001849C8641848006820F470501649086017
:1009F0000846006840F42050086013482030006822
:100A000040F0EE601049203108600F48083000685F
:100A100040F470500C4908310860081D006820F44B
:100A20007050091D08600846006840F4A050086036
:100A30000548001D006820F060000349091D08609A
:100A40007047000000100240000C004800B50D483F
:100A5000806D40F400300B4988650A488830006892
:100A600020F00C00C1F888000846D0F8880040F05B
:100A70000400C1F88800FFF7AFFF034800F010F84A
:100A800000BD0000001002400044004064224243C8
:100A90000723B2FBF3F100BF4A1E111EFCD17047C1
:100AA000016821F001010160016821F0102101605D
:100AB000016821F400410160416821F44051416026
:100AC00042F28D01C160016841F00C0101601E49D4
:100AD00088421BD1016841F020010160016821F0CA
:100AE00040010160016821F010010160016821F0FE
:100AF00080010160016821F480710160016821F0CA
:100B000040010160016821F0010101600F49884244
:100B100009D1016A41F0400101620D49096841F0C3
:100B2000C0010B4A1160016841F00101016000BF82
:100B3000C16901F400110029FAD000BFC16901F4B4
:100B400080010029FAD07047004C0040004400406A
:100B500008380140014600BFC86900F020000028A5
:100B6000FAD0888CC0B27047F0B504460E461746DE
:100B700000250CE000BFE06900F080000028FAD0FA
:100B8000705D20854FF49670FFF780FF6D1CBD42AD
:100B9000F0D300BFE06900F040000028FAD0E0691F
:100BA00020F04000E061F0BD70B5002438E01E4840
:100BB00050F8240000B932E01C4850F824201CA151
:100BC0001C48FFF7A1FB1B48FFF72FFC05462A46F0
:100BD00018491948FFF7C8FF1848FFF726FC0546D3
:100BE0002A4616491448FFF7BFFF0F4850F8242043
:100BF0000FA11048FFF788FB0E48FFF716FC0546CB
:100C00002A460C490C48FFF7AFFF0D48FFF70DFCD3
:100C100005462A460A490848FFF7A6FF00BF641C9C
:100C2000642CC4DD70BD0000D412002044110020EB
:100C300025640000A0010020004400409B0100202A
:100C40009D01002000211AE00F4850F8210000B952
:100C500014E000200FE00C4A52F821200B4B53F80F
:100C600020309A4206D10A4A52F82020521C084BE2
:100C700043F82020401C6428EDDD00BF491CB1F57D
:100C80007A7FE1DB70470000A401002044110020BE
:100C9000D41200200146002008E00A18054B43F852
:100CA00020200022044B43F82020401C6428F4DD5F
:100CB0007047000044110020D41200202DE9FC47A9
:100CC00004460D4600260027B0465148FFF7ADFB0D
:100CD000824652464E494F48FFF746FF4EA14F48C5
:100CE0002268FFF711FB4D48FFF79FFB82465246F3
:100CF0004A494848FFF738FF4948FFF796FB8246C4
:100D0000524647494348FFF72FFF43A143482A680B
:100D1000FFF7FAFA4148FFF788FB824652463F49FF
:100D20003C48FFF721FF3F48FFF77FFB82465246D2
:100D30003C493848FFF718FF3648FFF70BFF81465C
:100D400060E000BF3848FFF770FB824652463649E4
:100D50003048FFF709FF07E02E48FFF7FBFE80460B
:100D60000DF80780781CC7B2B8F10D0FF4D1002739
:100D70006846FFF74DFB0646B846322EE2DB42F2EC
:100D8000DE608642DEDC266006F1640028602048D2
:100D9000FFF74BFB824652461D491E48FFF7E4FE13
:100DA0001DA11E482268FFF7AFFA1C48FFF73DFB64
:100DB0008246524619491748FFF7D6FE1848FFF7F2
:100DC00034FB8246524616491248FFF7CDFE12A167
:100DD00012482A68FFF798FA1048FFF726FB824668
:100DE00052460E490B48FFF7BFFE0E48FFF71DFBAA
:100DF000824652460B490748FFF7B6FE0548FFF703
:100E0000A9FE8146B9F1310F9BD000F00FB8000068
:100E10006C0100200044004025640000A001002077
:100E2000840100208C000020CC0000200CBCBDE818
:100E3000F08700001CB540F2B630019001AD40F2E1
:100E40001A4000906E460027FFF704FDFFF7FEFDF5
:100E5000FFF7AAFC00F026F81BE031462846FFF712
:100E60002DFF0198FFF716FF00F048F8FFF7EAFEA4
:100E7000FFF79AFE0948FFF7D8FA8046424607492D
:100E80000748FFF771FE0648FFF764FE0446A4F129
:100E90003007002FE1D000BFFEE700006300002014
:100EA000004400402DE9F0410025002400271DE00A
:100EB00005E042F21070864200DD01276D1CB5F599
:100EC000FA7FF6DB97B10B48FFF7AFFA8046424650
:100ED00008490948FFF748FE0748FFF73BFE04466C
:100EE000A4F13000C4B20CB900250027002CDFD0DB
:100EF000BDE8F081000000200044004070B50848C3
:100F0000FFF793FA05462A4605490648FFF72CFEE7
:100F100000BF0448FFF71EFE04460D2CF9D170BD3A
:100F2000280100200044004010B500290AD00878AC
:100F3000002807D005487844FFF7EEFB002801D0D1
:100F4000002010BD0248784410BD00004A00000097
:100F5000420000004FF04070E1EE100A70470000C0
:100F6000901000080000002044110000C401000897
:100F7000EC11000844110020840900002002000840
:100F80001001000043000000F8FFFFFF0040404058
:100F9000404040404040414141414140404040404C
:100FA00040404040404040404040404040050202F8
:100FB00002020202020202020202020202202020B7
:100FC0002020202020202002020202020202909013
:100FD0009090909010101010101010101010101011
:100FE0001010101010101010020202020202888865
:100FF0008888888808080808080808080808080871
:101000000808080808080808020202024000000058
:1010100000000000000000000000000000000000D0
:1010200000000000000000000000000000000000C0
:1010300000000000000000000000000000000000B0
:1010400000000000000000000000000000000000A0
:101050000000000000000000000000000000000090
:101060000000000000000000000000000000000080
:101070000000000000000000000000000000000070
:101080000000000000000000000000000000000060
:10109000382B0D0A504F53542068617320666169E4
:1010A0006C65642E2020576F756C6420796F7520F5
:1010B0006C696B6520746F2072756E202838106122
:1010C0006761696E3F0D0A456E74657220301C3889
:1010D0000C65746573742C206F722065162A3116A6
:1010E000100B636F6E74696E75650D0A09112E1908
:1010F000654914392CEE717569742E291B75737A44
:101100001B686506CF6C696D697473333E636861F3
:101110006E6721691F9940180876616C75652066B5
:101120009118086E6577206C6F77143926180A3B82
:10113000206D757374206265035819747765656E48
:1011400020353020616E6420393935302E205072C0
:10115000657373C51B77681E380966696E697368A5
:1011600065645C1F53797374656DC12C6164798308
:1011700018156D65617375726520696E70757420E0
:101180007369676E616CA5A94529A948086F6E74DB
:10119000696E7565A01D437572721B3B204C942AC5
:1011A0004C94133A096A0917AC55707017193151EC
:1011B0002308041A06044BEA03041AFB041AE50484
:1011C0001A0A141AF7081AC5041AC20401FF01FF0B
:1011D00001FF01FF01FF01FF01FF01FF01FF01FF0F
:0C11E00001FF01FF01FF01FF01FF01877B
:040000050800018965
:00000001FF
