:020000040800F2
:10000000F01A00208D020008C9020008CB02000887
:10001000CD020008CF020008D10200080000000055
:10002000000000000000000000000000D3020008F3
:10003000D502000800000000D7020008D90200081D
:10004000DB020008DB020008DB020008DB0200081C
:10005000DB020008DB020008DB020008DB0200080C
:10006000DB020008DB020008DB020008DB020008FC
:10007000DB020008DB020008DB020008DB020008EC
:10008000DB020008DB020008DB020008DB020008DC
:10009000DB020008DB020008DB020008DB020008CC
:1000A000DB020008DB020008DB020008DB020008BC
:1000B000DB020008DB020008DB020008DB020008AC
:1000C000DB020008DB020008DB020008DB0200089C
:1000D000DB020008DB020008DB020008DB0200088C
:1000E000DB020008DB020008DB020008DB0200087C
:1000F000DB020008DB020008DB020008DB0200086C
:10010000DB020008DB020008DB020008DB0200085B
:10011000DB020008DB020008DB020008DB0200084B
:10012000DB020008DB020008DB020008DB0200083B
:10013000DB020008DB020008DB020008DB0200082B
:10014000DB020008DB020008DB020008DB0200081B
:10015000DB020008DB020008DB020008DB0200080B
:10016000DB020008DB020008DB020008DB020008FB
:10017000DB020008DB020008DB02000800000000D0
:10018000DB020008DB02000800F002F800F06EF865
:100190000AA090E8000C82448344AAF10107DA45E2
:1001A00001D100F063F8AFF2090EBAE80F0013F0C6
:1001B000010F18BFFB1A43F001031847300E00006F
:1001C000500E000010F8013B0A4413F0030408BF6E
:1001D00010F8014B1D1108BF10F8015B641E05D01B
:1001E00010F8016B641E01F8016BF9D1002D15D0D8
:1001F00010F8014B03F00C030C2BA1EB04040ABF15
:1002000010F8013BA4EB8314A4EB032405F10103D4
:1002100014F8016B5B1E01F8016BF9D5914238BFF0
:1002200010F8013BD1D3704700230024002500269D
:10023000103A28BF78C1FBD8520728BF30C148BF49
:100240000B607047642900F0AB80002070471FB539
:1002500000F0C6FE00F048FA04000020002100F083
:10026000A9FE401C60601FBD10B510BD00F016FA5D
:100270001146FFF7ECFF00F0F5FD00F047FA03B47C
:10028000FFF7F2FF03BC00F08BFA00001648174995
:10029000174B99423CBF50F8042B41F8042BF8D37C
:1002A00014494FF000028B4238BF43F8042BFAD3B5
:1002B000DFF84400016841F470010160BFF34F8F23
:1002C000BFF36F8F0D480047FEE7FEE7FEE7FEE74E
:1002D000FEE7FEE7FEE7FEE7FEE7FEE7084809491E
:1002E000094A0A4B704700001C110008000000205A
:1002F000D0010020F01A002088ED00E089010008FC
:10030000F0140020F01A0020F0160020F016002053
:100310000FB41CB5074B06AA7B44694600900598AC
:1003200000F00DF90020694600F01CF91CBC5DF8D6
:1003300014FB0000490200002DE9F0410E4604467E
:10034000002020622046E168884730B3252805D088
:10035000D4E901219047206A401CF2E7E168204679
:1003600000278847050018D0A5F14100192802D8B8
:1003700020354FF400673246294620462760FFF7B4
:1003800061FF40B1012804D0F61D26F007060836AB
:10039000D8E7361DD6E72846DAE7206ABDE8F081BF
:1003A0002DE9F0410646002410687529314616A54E
:1003B00010D0AFF30080002802DA404213A507E016
:1003C00031688A0701D512A502E0490704D511A5B5
:1003D000012401E0AFF3008000210A2206F1240786
:1003E00009E0B0FBF2FCB0FBF2F302FB1C00303082
:1003F00078541846491C0028F3D123462A46304633
:10040000BDE8F04100F03CB8000000002D00000005
:100410002B0000002000000070B5064600F02CF80C
:100420000468054630460A22002100F0A0F82C603E
:1004300070BD10B5431C02E010F8011B71B18107BB
:10044000FAD14FF0013202C88C1A8C4314EAC2115F
:10045000F9D0C01A0A0603D0C01E10BDC01A10BDC4
:100460000A0401D0801E10BD0902FCD0401E10BD40
:100470007047704770470000004870479014002094
:100480002DE9F0470D4699469246044600F12408AE
:100490000168880604D5E06921F01001216000E0C0
:1004A0000120A84201DD471B00E00027A1697A195D
:1004B00002EB0900081AA0612078C00602D4204689
:1004C000AFF30080002608E0D4E901211AF8060005
:1004D0009047206A401C761C20624E45F4DB207851
:1004E000C0060AD52046AFF3008006E0D4E901211A
:1004F00030209047206A401C2062381EA7F1010777
:10050000F4DC07E0D4E9012118F805009047206ADF
:10051000401C2062281EA5F10105F3DC2046AFF344
:1005200000802078000602D50220BDE8F087012077
:10053000FBE7000001694A1C02610878704700B5BA
:100540008FB0CDE901310021059105497944CDE90C
:10055000031011466846FFF7EFFE0FB000BD000024
:10056000E5FFFFFF0A6802F8010B0A6070472DE9FA
:10057000F04791460F4680460446002614F8015B7A
:100580002DB100F031F80068405DC007F6D12B2D89
:1005900002D02D2D18D0641E4A463946204600F060
:1005A0002BF827B13968A14201D1C7F800804FF07C
:1005B000020471050BD54042002803DDFFF75CFF04
:1005C0000460A007BDE8F08746F48066E4E70028F1
:1005D000F8DAFFF751FF04606FF00040F2E7000027
:1005E000004870479014002010B500F07DF8001D01
:1005F00010BD00BFC10900002DE9F05F824615461D
:100600008B4600270AF10104B9460078302801D052
:100610009DB113E014F8010B0127782803D0582866
:1006200001D045B10AE00DB1102D07D1002714F813
:10063000010B102502E0082500E00A250026B0463F
:100640000EE005FB080005FB06F101271FFA80F804
:1006500001EB1046B6F5803F00D3B94614F8010B04
:10066000294600F045F80028EBDABBF1000F05D071
:100670000FB1641E00E05446CBF80040B9F1000F02
:1006800006D0FFF7F9FE02210160C81E00F003B892
:1006900048EA0640FAE730BCBDE8C09F7546FFF760
:1006A0009FFFAE4605006946534620F00700854689
:1006B00018B020B5FFF712FEBDE820404FF000064D
:1006C0004FF000074FF000084FF0000B21F007013A
:1006D000AC46ACE8C009ACE8C009ACE8C009ACE87D
:1006E000C0098D467047000000487047B0140020D4
:1006F0003A2800D2303820F02002412A01D3A2F15A
:100700003700884201D34FF0FF30704710B50446E0
:10071000AFF300802046BDE81040FFF7B0BD0000F9
:100720004FF0013C50F8042B51F8043B9A4221D180
:10073000A2EB0C03934313EACC1317D150F8042B0C
:1007400051F8043B9A4215D1A2EB0C03934313EAF0
:10075000CC130BD150F8042B51F8043B9A4209D129
:10076000A2EB0C03934313EACC13DBD04FF0000051
:10077000704700BFD01A01BAB1FA81F101F0180137
:1007800022FA01F0CB40C1F12001DBB2C0B2C01AA5
:100790002CFA01F3D11A914311EAC311E6D1704743
:1007A00001491820ABBEFEE726000200704700009A
:1007B0001A48C06C40F001001849C8644FF09040DE
:1007C000006820F003004FF0904108600846006880
:1007D00040F0020008600846006A40F0010008622C
:1007E0000E48806D40F001000C498865502081065C
:1007F00088628006406940F0010048610846006A4E
:10080000002008620846806940F0010088610846BF
:10081000006A40F0010008627047000000100240CA
:100820005E49096821F007015C4A116011460968B8
:1008300041F0020111605A49096841F48071584A37
:10084000116000BF5649096801F480610029F9D0A0
:1008500010205349496821F0F851514A516011461E
:10086000496841EA006151601146096821F08071D0
:10087000116000BF4A49096801F00071B1F1007FC1
:10088000F8D04749C96821F00301454AD1601146B3
:10089000C96841F00201D1601146C96821F4FE41E6
:1008A00041F4A051D1601146C96821F0700141F0B6
:1008B0001001D1601146C96821F0C061D1601146B4
:1008C000C96841F08071D1601146096841F08071BA
:1008D000116000BF3249096801F000710029F9D0A8
:1008E0002F49896821F003012D4A916011468968DA
:1008F00041F00301916000BF2949896801F00C01B2
:100900000C29F9D12649896821F0F001244A916027
:100910001146896821F4E06191601146896821F4EB
:10092000605191601146096821F08061116000BF3B
:100930001B49096801F08061B1F1806FF8D0184956
:10094000096921F4FE41164A11611146096941F411
:10095000C05111611146096941F40031116111461C
:10096000096941F4803111611146096841F08061E3
:10097000116000BF0A49096801F080610029F9D0BF
:1009800007498831096821F44001054AC2F88810F6
:100990001146096E41F400111166704700200240B3
:1009A000001002401A48C06C40F008001849C864A2
:1009B0001848006820F4705016490860084600681E
:1009C00040F42050086013482030006840F0EE608A
:1009D0001049203108600F480830006840F470501A
:1009E0000C4908310860081D006820F47050091D8A
:1009F00008600846006840F4A05008600548001DE3
:100A0000006820F060000349091D0860704700007D
:100A100000100240000C004800B50D48806D40F405
:100A200000300B4988650A488830006820F00C00C7
:100A3000C1F888000846D0F8880040F00400C1F8EA
:100A40008800FFF7AFFF034800F010F800BD00007A
:100A50000010024000440040642242430723B2FBDE
:100A6000F3F100BF4A1E111EFCD17047016821F04E
:100A700001010160016821F010210160016821F489
:100A800000410160416821F44051416042F28D0112
:100A9000C160016841F00C0101601E4988421BD110
:100AA000016841F020010160016821F0400101600E
:100AB000016821F010010160016821F080010160EE
:100AC000016821F480710160016821F0400101603A
:100AD000016821F0010101600F49884209D1016AD2
:100AE00041F0400101620D49096841F0C0010B4A23
:100AF0001160016841F00101016000BFC16901F4AA
:100B000000110029FAD000BFC16901F48001002959
:100B1000FAD07047004C00400044004008380140C3
:100B2000014600BFC86900F020000028FAD0888C78
:100B3000C0B27047F0B504460E46174600250CE0DB
:100B400000BFE06900F080000028FAD0705D2085C9
:100B50004FF49670FFF780FF6D1CBD42F0D300BFCD
:100B6000E06900F040000028FAD0E06920F0400081
:100B7000E061F0BD70B51748FFF75BFC05462A46FB
:100B800014491548FFF7D6FF00201AE001218A0713
:100B9000116089074C6B11E04FF08041096901F049
:100BA000020159B14FF08041496B091B0B4A42F8D1
:100BB000201000214FF08042116000E0ECE700BF00
:100BC000401CB0F57A7FE1DD00204FF080410860E5
:100BD00070BD0000B001002000440040D0010020A2
:100BE00070B5002438E01E4850F8240000B932E007
:100BF0001C4850F824201CA11C48FFF789FB1B4807
:100C0000FFF717FC05462A4618491948FFF792FFD7
:100C10001848FFF70EFC05462A4616491448FFF708
:100C200089FF0F4850F824200FA11048FFF770FBF0
:100C30000E48FFF7FEFB05462A460C490C48FFF715
:100C400079FF0D48FFF7F5FB05462A460A49084893
:100C5000FFF770FF00BF641C642CC4DB70BD000094
:100C6000001300207011002025640000CC0100203A
:100C700000440040C7010020C9010020002116E007
:100C8000002011E00C4A52F821200C4B53F8203080
:100C90009A4207D10A4A52F82020521C084B43F8C6
:100CA000202000E000BF401C6428EBDB491CB1F5AC
:100CB0007A7FE5DD70470000D00100207011002030
:100CC000001300200146002008E00A18054B43F8F5
:100CD00020200022044B43F82020401C6428F4DB31
:100CE0007047000070110020001300202DE9FC4720
:100CF00004460D4600260027B0465148FFF799FBF1
:100D0000824652464E494F48FFF714FF4EA14F48C6
:100D10002268FFF7FDFA4D48FFF78BFB82465246EB
:100D20004A494848FFF706FF4948FFF782FB8246D9
:100D3000524647494348FFF7FDFE43A143482A680E
:100D4000FFF7E6FA4148FFF774FB824652463F49F7
:100D50003C48FFF7EFFE3F48FFF76BFB82465246E9
:100D60003C493848FFF7E6FE3648FFF7D9FE814692
:100D700060E000BF3848FFF75CFB824652463649C8
:100D80003048FFF7D7FE07E02E48FFF7C9FE804640
:100D90000DF80780781CC7B2B8F10D0FF4D1002709
:100DA0006846FFF739FB0646B846322EE2DB42F2D0
:100DB000DE608642DEDC266006F1640028602048A2
:100DC000FFF737FB824652461D491E48FFF7B2FE29
:100DD0001DA11E482268FFF79BFA1C48FFF729FB5C
:100DE0008246524619491748FFF7A4FE1848FFF7F4
:100DF00020FB8246524616491248FFF79BFE12A17D
:100E000012482A68FFF784FA1048FFF712FB82465F
:100E100052460E490B48FFF78DFE0E48FFF709FBBF
:100E2000824652460B490748FFF784FE0548FFF704
:100E300077FE8146B9F1310F9BD000F00FB800006A
:100E4000810100200044004025640000CC01002006
:100E500099010020A1000020E10000200CBCBDE8A9
:100E6000F08700001CB540F2B630019001AD40F2B1
:100E70001A4000906E460027FFF7D2FCFFF7CCFD2A
:100E8000FFF796FC00F028F81DE031462846FFF7F2
:100E90002DFF0198FFF716FF00F076F8FFF76AFEC6
:100EA000FFF7ECFEFFF79CFE0948FFF7C2FA804609
:100EB000424607490748FFF73DFE0648FFF730FE68
:100EC0000446A4F13007002FDFD000BFFEE700008A
:100ED00078000020004400402DE9F0410024002764
:100EE0002548FFF7A6FA8046424623492348FFF7E4
:100EF00021FE3CE000201CE001218A0711608907E7
:100F00004E6B0EE04FF08041096901F0020141B1E2
:100F10004FF08041496B8D1B00214FF080421160E2
:100F200000E0EFE700BF16498D4201DD012703E035
:100F3000401CB0F5FA7FDFDB00BF00204FF080419E
:100F40000860012F12D10F48FFF773FA804642461E
:100F50000C490A48FFF7EEFD0848FFF7E1FD04469B
:100F6000A4F13000C4B214B9002700E00124002C21
:100F7000C0D0BDE8F0810000000000200044004027
:100F8000A08601001500002070B50848FFF751FA4F
:100F900005462A4605490648FFF7CCFD00BF044830
:100FA000FFF7BEFD04460D2CF9D170BD3D010020B8
:100FB0000044004010B500290AD00878002807D066
:100FC00005487844FFF7ACFB002801D0002010BD95
:100FD0000248784410BD00004A00000042000000B2
:100FE0004FF04070E1EE100A704700001C1100083D
:100FF00000000020D0010000C401000860120008B9
:10100000D001002020190000280200081001000073
:1010100043000000F8FFFFFF0040404040404040D8
:1010200040404141414141404040404040404040BB
:10103000404040404040404040050202020202025F
:1010400002020202020202020220202020202020AE
:1010500020202002020202020202909090909090C2
:101060001010101010101010101010101010101080
:1010700010101010020202020202888888888888F4
:1010800008080808080808080808080808080808E0
:1010900008080808020202024000000000000000E8
:1010A0000000000000000000000000000000000040
:1010B0000000000000000000000000000000000030
:1010C0000000000000000000000000000000000020
:1010D0000000000000000000000000000000000010
:1010E0000000000000000000000000000000000000
:1010F00000000000000000000000000000000000F0
:1011000000000000000000000000000000000000DF
:1011100000000000000000000000000050160D0A52
:10112000504F53542069732072756E6E696E672E2E
:101130000D0A0015201F686173206661696C656483
:101140002E2020576F756C6420796F75206C696B49
:101150006520746F313220283010616761696E3FFD
:101160000D0A456E74657220301C300C6574657311
:10117000742C206F722065162231163009636F6E51
:1011800074696E756563F12E116582452CE00671F8
:101190007569742E291375737A13686506C0076C18
:1011A000696D6974733330066368616E6721611F0E
:1011B0009140100876616C756520669110086E6527
:1011C00077206C6F77143126100A3B206D7573748D
:1011D000206265035019747765656E203530206193
:1011E0006E6420393935302E205072657373C51303
:1011F00077681E340966696E69736865642810072C
:1012000053797374656DEF2004616479B614156DBC
:1012100065617375726520696E7075742073696796
:101220006E616C3DA145950841E0140543757272ED
:101230002533204C94224C9460053A0900091790FC
:101240000455707017112F14066F6C6C656348207D
:10125000096720446174612E2E4621192200010085
:040000050800018965
:00000001FF
