:020000040800F2
:10000000C01A00208D020008C9020008CB020008B7
:10001000CD020008CF020008D10200080000000055
:10002000000000000000000000000000D3020008F3
:10003000D502000800000000D7020008D90200081D
:10004000DB020008DB020008DB020008DB0200081C
:10005000DB020008DB020008DB020008DB0200080C
:10006000DB020008DB020008DB020008DB020008FC
:10007000DB020008DB020008DB020008DB020008EC
:10008000DB020008DB020008DB020008DB020008DC
:10009000DB020008DB020008DB020008DB020008CC
:1000A000DB020008DB020008DB020008DB020008BC
:1000B000DB020008DB020008DB020008DB020008AC
:1000C000DB020008DB020008DB020008DB0200089C
:1000D000DB020008DB020008DB020008DB0200088C
:1000E000DB020008DB020008DB020008DB0200087C
:1000F000DB020008DB020008DB020008DB0200086C
:10010000DB020008DB020008DB020008DB0200085B
:10011000DB020008DB020008DB020008DB0200084B
:10012000DB020008DB020008DB020008DB0200083B
:10013000DB020008DB020008DB020008DB0200082B
:10014000DB020008DB020008DB020008DB0200081B
:10015000DB020008DB020008DB020008DB0200080B
:10016000DB020008DB020008DB020008DB020008FB
:10017000DB020008DB020008DB02000800000000D0
:10018000DB020008DB02000800F002F800F06EF865
:100190000AA090E8000C82448344AAF10107DA45E2
:1001A00001D100F063F8AFF2090EBAE80F0013F0C6
:1001B000010F18BFFB1A43F001031847800E00001F
:1001C000A00E000010F8013B0A4413F0030408BF1E
:1001D00010F8014B1D1108BF10F8015B641E05D01B
:1001E00010F8016B641E01F8016BF9D1002D15D0D8
:1001F00010F8014B03F00C030C2BA1EB04040ABF15
:1002000010F8013BA4EB8314A4EB032405F10103D4
:1002100014F8016B5B1E01F8016BF9D5914238BFF0
:1002200010F8013BD1D3704700230024002500269D
:10023000103A28BF78C1FBD8520728BF30C148BF49
:100240000B607047642900F0AB80002070471FB539
:1002500000F0EEFE00F048FA04000020002100F05B
:10026000D1FE401C60601FBD10B510BD00F016FA35
:100270001146FFF7ECFF00F01FFE00F047FA03B451
:10028000FFF7F2FF03BC00F08BFA00001648174995
:10029000174B99423CBF50F8042B41F8042BF8D37C
:1002A00014494FF000028B4238BF43F8042BFAD3B5
:1002B000DFF84400016841F470010160BFF34F8F23
:1002C000BFF36F8F0D480047FEE7FEE7FEE7FEE74E
:1002D000FEE7FEE7FEE7FEE7FEE7FEE7084809491E
:1002E000094A0A4B704700006C110008000000200A
:1002F0009C010020C01A002088ED00E08901000860
:10030000C0140020C01A0020C0160020C016002013
:100310000FB41CB5074B06AA7B44694600900598AC
:1003200000F00DF90020694600F01CF91CBC5DF8D6
:1003300014FB0000490200002DE9F0410E4604467E
:10034000002020622046E168884730B3252805D088
:10035000D4E901219047206A401CF2E7E168204679
:1003600000278847050018D0A5F14100192802D8B8
:1003700020354FF400673246294620462760FFF7B4
:1003800061FF40B1012804D0F61D26F007060836AB
:10039000D8E7361DD6E72846DAE7206ABDE8F081BF
:1003A0002DE9F0410646002410687529314616A54E
:1003B00010D0AFF30080002802DA404213A507E016
:1003C00031688A0701D512A502E0490704D511A5B5
:1003D000012401E0AFF3008000210A2206F1240786
:1003E00009E0B0FBF2FCB0FBF2F302FB1C00303082
:1003F00078541846491C0028F3D123462A46304633
:10040000BDE8F04100F03CB8000000002D00000005
:100410002B0000002000000070B5064600F02CF80C
:100420000468054630460A22002100F0A0F82C603E
:1004300070BD10B5431C02E010F8011B71B18107BB
:10044000FAD14FF0013202C88C1A8C4314EAC2115F
:10045000F9D0C01A0A0603D0C01E10BDC01A10BDC4
:100460000A0401D0801E10BD0902FCD0401E10BD40
:100470007047704770470000004870475C140020C8
:100480002DE9F0470D4699469246044600F12408AE
:100490000168880604D5E06921F01001216000E0C0
:1004A0000120A84201DD471B00E00027A1697A195D
:1004B00002EB0900081AA0612078C00602D4204689
:1004C000AFF30080002608E0D4E901211AF8060005
:1004D0009047206A401C761C20624E45F4DB207851
:1004E000C0060AD52046AFF3008006E0D4E901211A
:1004F00030209047206A401C2062381EA7F1010777
:10050000F4DC07E0D4E9012118F805009047206ADF
:10051000401C2062281EA5F10105F3DC2046AFF344
:1005200000802078000602D50220BDE8F087012077
:10053000FBE7000001694A1C02610878704700B5BA
:100540008FB0CDE901310021059105497944CDE90C
:10055000031011466846FFF7EFFE0FB000BD000024
:10056000E5FFFFFF0A6802F8010B0A6070472DE9FA
:10057000F04791460F4680460446002614F8015B7A
:100580002DB100F031F80068405DC007F6D12B2D89
:1005900002D02D2D18D0641E4A463946204600F060
:1005A0002BF827B13968A14201D1C7F800804FF07C
:1005B000020471050BD54042002803DDFFF75CFF04
:1005C0000460A007BDE8F08746F48066E4E70028F1
:1005D000F8DAFFF751FF04606FF00040F2E7000027
:1005E000004870475C14002010B500F07DF8001D35
:1005F00010BD00BF110A00002DE9F05F82461546CC
:100600008B4600270AF10104B9460078302801D052
:100610009DB113E014F8010B0127782803D0582866
:1006200001D045B10AE00DB1102D07D1002714F813
:10063000010B102502E0082500E00A250026B0463F
:100640000EE005FB080005FB06F101271FFA80F804
:1006500001EB1046B6F5803F00D3B94614F8010B04
:10066000294600F045F80028EBDABBF1000F05D071
:100670000FB1641E00E05446CBF80040B9F1000F02
:1006800006D0FFF7F9FE02210160C81E00F003B892
:1006900048EA0640FAE730BCBDE8C09F7546FFF760
:1006A0009FFFAE4605006946534620F00700854689
:1006B00018B020B5FFF712FEBDE820404FF000064D
:1006C0004FF000074FF000084FF0000B21F007013A
:1006D000AC46ACE8C009ACE8C009ACE8C009ACE87D
:1006E000C0098D4670470000004870477C14002008
:1006F0003A2800D2303820F02002412A01D3A2F15A
:100700003700884201D34FF0FF30704710B50446E0
:10071000AFF300802046BDE81040FFF7B0BD0000F9
:100720004FF0013C50F8042B51F8043B9A4221D180
:10073000A2EB0C03934313EACC1317D150F8042B0C
:1007400051F8043B9A4215D1A2EB0C03934313EAF0
:10075000CC130BD150F8042B51F8043B9A4209D129
:10076000A2EB0C03934313EACC13DBD04FF0000051
:10077000704700BFD01A01BAB1FA81F101F0180137
:1007800022FA01F0CB40C1F12001DBB2C0B2C01AA5
:100790002CFA01F3D11A914311EAC311E6D1704743
:1007A00001491820ABBEFEE726000200704700009A
:1007B0002748C06C40F002002549C86425480068FD
:1007C00040F40050234908602148806D40F0040047
:1007D0001F49886540F21F301F4908601E481038C5
:1007E000006820F003001C491039086008460068C2
:1007F00040F0010008600846006820F0F000086042
:100800001548083800680020134908390860124864
:100810001038006820F00C000F49103908600E48AD
:100820000838006840F001000B49083908600A48A0
:100830001C38006840F4007007491C3908600648FD
:100840002838006840F001000349283908607047E3
:100850000010024000040048280800402348C06CF3
:1008600040F012002149C8646FF030002049086050
:100870000846006840F0100008601D480830006815
:1008800020F030001A49083108600846006840F03E
:1008900030000860081F006820F00400091F08608D
:1008A00013480C30006820F0300011490C3108600A
:1008B0006FF440300F4908600846006840F480300B
:1008C00008600846806820F44030886008468068E8
:1008D00040F4403088600846406820F480704860EA
:1008E0000846C06820F44030C860704700100240DD
:1008F000000400480010004830B50446002520469A
:1009000000F048FA002008E054F82010642901DDC6
:10091000012500E000E000BF401CB0F57A7FF3DB6A
:10092000284630BD5E49096821F007015C4A116024
:100930001146096841F0020111605A49096841F401
:100940008071584A116000BF5649096801F48061FE
:100950000029F9D010205349496821F0F851514A33
:1009600051601146496841EA0061516011460968C9
:1009700021F08071116000BF4A49096801F00071DF
:10098000B1F1007FF8D04749C96821F00301454A19
:10099000D1601146C96841F00201D1601146C968B1
:1009A00021F4FE4141F4A051D1601146C96821F003
:1009B000700141F01001D1601146C96821F0C06199
:1009C000D1601146C96841F08071D1601146096853
:1009D00041F08071116000BF3249096801F0007177
:1009E0000029F9D02F49896821F003012D4A91602F
:1009F0001146896841F00301916000BF2949896867
:100A000001F00C010C29F9D12649896821F0F00187
:100A1000244A91601146896821F4E0619160114691
:100A2000896821F4605191601146096821F0806164
:100A3000116000BF1B49096801F08061B1F1806F4E
:100A4000F8D01849096921F4FE41164A116111468E
:100A5000096941F4C05111611146096941F400313D
:100A600011611146096941F480311161114609682B
:100A700041F08061116000BF0A49096801F080619E
:100A80000029F9D007498831096821F44001054A55
:100A9000C2F888101146096E41F4001111667047C2
:100AA00000200240001002401A48C06C40F00800CC
:100AB0001849C8641848006820F470501649086046
:100AC0000846006840F42050086013482030006851
:100AD00040F0EE601049203108600F48083000688F
:100AE00040F470500C4908310860081D006820F47B
:100AF0007050091D08600846006840F4A050086066
:100B00000548001D006820F060000349091D0860C9
:100B10007047000000100240000C004800B50D486E
:100B2000806D40F400300B4988650A4888300068C1
:100B300020F00C00C1F888000846D0F8880040F08A
:100B40000400C1F88800FFF7AFFF034800F010F879
:100B500000BD0000001002400044004064224243F7
:100B60000723B2FBF3F100BF4A1E111EFCD17047F0
:100B7000016821F001010160016821F0102101608C
:100B8000016821F400410160416821F44051416055
:100B900042F28D01C160016841F00C0101601E4903
:100BA00088421BD1016841F020010160016821F0F9
:100BB00040010160016821F010010160016821F02D
:100BC00080010160016821F480710160016821F0F9
:100BD00040010160016821F0010101600F49884274
:100BE00009D1016A41F0400101620D49096841F0F3
:100BF000C0010B4A1160016841F00101016000BFB2
:100C0000C16901F400110029FAD000BFC16901F4E3
:100C100080010029FAD07047004C00400044004099
:100C200008380140014600BFC86900F020000028D4
:100C3000FAD0888CC0B27047F0B504460E4617460D
:100C400000250CE000BFE06900F080000028FAD029
:100C5000705D20854FF49670FFF780FF6D1CBD42DC
:100C6000F0D300BFE06900F040000028FAD0E0694E
:100C700020F04000E061F0BD2DE9FC4705460E463E
:100C800000240027A0463A48FFF7D3FB824652468D
:100C900037493848FFF7D0FF37A138482A68FFF7AF
:100CA00037FB3648FFF7C5FB824652463349314889
:100CB000FFF7C2FF3248FFF7BCFB8246524630497D
:100CC0002C48FFF7B9FF2CA12C483268FFF720FB16
:100CD0002A48FFF7AEFB8246524628492548FFF7CF
:100CE000ABFF2848FFF7A5FB82465246254921481D
:100CF000FFF7A2FF1F48FFF795FF8146B9F1310FBB
:100D000033D100BF2048FFF794FB824652461E496C
:100D10001848FFF791FF07E01648FFF783FF80466A
:100D20000DF80780781CC7B2B8F10D0FF4D1002779
:100D30006846FFF771FB044622460FA10F48FFF7F4
:100D4000E7FA0E48FFF775FB824652460B49094801
:100D5000FFF772FFB846322CD4DB42F2DE608442E9
:100D6000D0DC2C6004F164003060484600F00EB81E
:100D70006601002000440040256400009801002026
:100D80007D01002085000020C50000200CBCBDE8CE
:100D9000F0870000014600200EE000BF084A1268FC
:100DA000022AFBD1064A2432126841F82020002290
:100DB000034B14331A60401CB0F57A7FEDDB7047AB
:100DC000100800402DE9F04105460E461746002464
:100DD00030E055F824201CA11C48FFF799FA1B4865
:100DE000FFF727FB8046424618491948FFF724FFC2
:100DF0001848FFF71EFB8046424616491448FFF785
:100E00001BFF56F8242010A11048FFF781FA0F4865
:100E1000FFF70FFB804642460C490D48FFF70CFFD9
:100E20000D48FFF706FB804642460B490848FFF78E
:100E300003FF641C642CCCDD042239460448FFF710
:100E4000FBFEBDE8F0810000256400009801002051
:100E5000004400409401002096010020F0B50446B3
:100E60000D4600211AE054F8210000B915E00020D9
:100E700010E054F8216055F82070BE4204D152F8B9
:100E80002060761C42F82060642802D11E68761C1F
:100E90001E60401C6428ECDD00BF491CB1F57A7F60
:100EA000E1DBF0BD0246002003E0131841F82030DA
:100EB000401C6428F9DD70471FB5002640F2B630AB
:100EC000039003AF40F21A4002900DF10808002091
:100ED00001900DF1040982468346FFF723FDFFF7D9
:100EE000BDFCFFF71BFEFFF763FC00BF3348FFF7B5
:100EF00003FD0646012E13D13148FFF79AFA024648
:100F00002F4900902F48FFF797FE2E48FFF78AFEE3
:100F1000044604B904E0012C01D1002600E000E001
:100F200000BF012EE2D004E041463846FFF7A4FEA0
:100F30008346BBF1000FF7D023490398FFF7B2FFB8
:100F400000F04AF833E01D48FFF724FF4B461F4AE4
:100F50001D491A48FFF782FF1C491B48019AFFF7F9
:100F600031FF1B48FFF765FA024619490090154802
:100F7000FFF762FE1348FFF755FE0446ACB915486B
:100F8000FFF757FA0246134900900E48FFF754FE48
:100F90000C48FFF747FE054605B908E0012C05D1CE
:100FA00041463846FFF768FE00E003E000BFBAF1B3
:100FB000000FC8D000BF00BFFEE700009C0100206A
:100FC00000000020004400403C110020CC12002012
:100FD0005F0000208500002070B50848FFF729FA5F
:100FE00005462A4605490648FFF726FE00BF044885
:100FF000FFF718FE04460D2CF9D170BD2501002025
:101000000044004010B500290AD00878002807D015
:1010100005487844FFF784FB002801D0002010BD6C
:101020000248784410BD00004A0000004200000061
:101030004FF04070E1EE100A704700006C1100089C
:10104000000000209C010000C40100089412000868
:101050009C01002024190000280200081001000053
:1010600043000000F8FFFFFF004040404040404088
:10107000404041414141414040404040404040406B
:10108000404040404040404040050202020202020F
:10109000020202020202020202202020202020205E
:1010A0002020200202020202020290909090909072
:1010B0001010101010101010101010101010101030
:1010C00010101010020202020202888888888888A4
:1010D0000808080808080808080808080808080890
:1010E0000808080802020202400000000000000098
:1010F00000000000000000000000000000000000F0
:1011000000000000000000000000000000000000DF
:1011100000000000000000000000000000000000CF
:1011200000000000000000000000000000000000BF
:1011300000000000000000000000000000000000AF
:10114000000000000000000000000000000000009F
:10115000000000000000000000000000000000008F
:10116000000000000000000000000000302A0A50CB
:101170004F535420686173206661696C65642E204A
:1011800020576F756C6420796F75206C696B6520D2
:10119000746F2072756E2028300F616761696E3F31
:1011A0000A456E74657220301B300C65746573746B
:1011B0002C206F72206516223116000A10636F6EA4
:1011C00074696E7565002B1161824529B0067175D1
:1011D00069742E2613757373100868652073616D2A
:1011E0006581C0056D6974733340066368616E671D
:1011F00024511F6140100876616C756520668B1064
:10120000086E6577206C6F7714312311D532561C28
:1012100010086D75737420626503501974776565E5
:101220006E20353020616E6420393935302E2050E3
:1012300072657373C61377681E101166696E6973E1
:10124000686564000A53797374656DED2004616408
:1012500079B710156D65617375726520696E70756B
:1012600074207369676E616C65A142950611E11483
:1012700005437572722033204C95224CB860053AB4
:1012800009000917A004557070172004000A000116
:04129000000000005A
:040000050800018965
:00000001FF
